{
  "contractName": "IXO_Token",
  "abi": [
    {
      "inputs": [
        {
          "internalType": "string",
          "name": "_name",
          "type": "string"
        },
        {
          "internalType": "string",
          "name": "_symbol",
          "type": "string"
        }
      ],
      "stateMutability": "nonpayable",
      "type": "constructor"
    },
    {
      "anonymous": false,
      "inputs": [
        {
          "indexed": true,
          "internalType": "address",
          "name": "owner",
          "type": "address"
        },
        {
          "indexed": true,
          "internalType": "address",
          "name": "spender",
          "type": "address"
        },
        {
          "indexed": false,
          "internalType": "uint256",
          "name": "value",
          "type": "uint256"
        }
      ],
      "name": "Approval",
      "type": "event"
    },
    {
      "anonymous": false,
      "inputs": [
        {
          "indexed": true,
          "internalType": "address",
          "name": "previousOwner",
          "type": "address"
        },
        {
          "indexed": true,
          "internalType": "address",
          "name": "newOwner",
          "type": "address"
        }
      ],
      "name": "OwnershipTransferred",
      "type": "event"
    },
    {
      "anonymous": false,
      "inputs": [
        {
          "indexed": false,
          "internalType": "address",
          "name": "account",
          "type": "address"
        }
      ],
      "name": "Paused",
      "type": "event"
    },
    {
      "anonymous": false,
      "inputs": [
        {
          "indexed": true,
          "internalType": "address",
          "name": "from",
          "type": "address"
        },
        {
          "indexed": true,
          "internalType": "address",
          "name": "to",
          "type": "address"
        },
        {
          "indexed": false,
          "internalType": "uint256",
          "name": "value",
          "type": "uint256"
        }
      ],
      "name": "Transfer",
      "type": "event"
    },
    {
      "anonymous": false,
      "inputs": [
        {
          "indexed": false,
          "internalType": "address",
          "name": "account",
          "type": "address"
        }
      ],
      "name": "Unpaused",
      "type": "event"
    },
    {
      "inputs": [
        {
          "internalType": "address",
          "name": "owner",
          "type": "address"
        },
        {
          "internalType": "address",
          "name": "spender",
          "type": "address"
        }
      ],
      "name": "allowance",
      "outputs": [
        {
          "internalType": "uint256",
          "name": "",
          "type": "uint256"
        }
      ],
      "stateMutability": "view",
      "type": "function"
    },
    {
      "inputs": [
        {
          "internalType": "address",
          "name": "spender",
          "type": "address"
        },
        {
          "internalType": "uint256",
          "name": "amount",
          "type": "uint256"
        }
      ],
      "name": "approve",
      "outputs": [
        {
          "internalType": "bool",
          "name": "",
          "type": "bool"
        }
      ],
      "stateMutability": "nonpayable",
      "type": "function"
    },
    {
      "inputs": [
        {
          "internalType": "address",
          "name": "account",
          "type": "address"
        }
      ],
      "name": "balanceOf",
      "outputs": [
        {
          "internalType": "uint256",
          "name": "",
          "type": "uint256"
        }
      ],
      "stateMutability": "view",
      "type": "function"
    },
    {
      "inputs": [],
      "name": "decimals",
      "outputs": [
        {
          "internalType": "uint8",
          "name": "",
          "type": "uint8"
        }
      ],
      "stateMutability": "view",
      "type": "function"
    },
    {
      "inputs": [
        {
          "internalType": "address",
          "name": "spender",
          "type": "address"
        },
        {
          "internalType": "uint256",
          "name": "subtractedValue",
          "type": "uint256"
        }
      ],
      "name": "decreaseAllowance",
      "outputs": [
        {
          "internalType": "bool",
          "name": "",
          "type": "bool"
        }
      ],
      "stateMutability": "nonpayable",
      "type": "function"
    },
    {
      "inputs": [
        {
          "internalType": "address",
          "name": "spender",
          "type": "address"
        },
        {
          "internalType": "uint256",
          "name": "addedValue",
          "type": "uint256"
        }
      ],
      "name": "increaseAllowance",
      "outputs": [
        {
          "internalType": "bool",
          "name": "",
          "type": "bool"
        }
      ],
      "stateMutability": "nonpayable",
      "type": "function"
    },
    {
      "inputs": [],
      "name": "name",
      "outputs": [
        {
          "internalType": "string",
          "name": "",
          "type": "string"
        }
      ],
      "stateMutability": "view",
      "type": "function"
    },
    {
      "inputs": [],
      "name": "owner",
      "outputs": [
        {
          "internalType": "address",
          "name": "",
          "type": "address"
        }
      ],
      "stateMutability": "view",
      "type": "function"
    },
    {
      "inputs": [],
      "name": "paused",
      "outputs": [
        {
          "internalType": "bool",
          "name": "",
          "type": "bool"
        }
      ],
      "stateMutability": "view",
      "type": "function"
    },
    {
      "inputs": [],
      "name": "renounceOwnership",
      "outputs": [],
      "stateMutability": "nonpayable",
      "type": "function"
    },
    {
      "inputs": [],
      "name": "symbol",
      "outputs": [
        {
          "internalType": "string",
          "name": "",
          "type": "string"
        }
      ],
      "stateMutability": "view",
      "type": "function"
    },
    {
      "inputs": [],
      "name": "totalSupply",
      "outputs": [
        {
          "internalType": "uint256",
          "name": "",
          "type": "uint256"
        }
      ],
      "stateMutability": "view",
      "type": "function"
    },
    {
      "inputs": [
        {
          "internalType": "address",
          "name": "recipient",
          "type": "address"
        },
        {
          "internalType": "uint256",
          "name": "amount",
          "type": "uint256"
        }
      ],
      "name": "transfer",
      "outputs": [
        {
          "internalType": "bool",
          "name": "",
          "type": "bool"
        }
      ],
      "stateMutability": "nonpayable",
      "type": "function"
    },
    {
      "inputs": [
        {
          "internalType": "address",
          "name": "sender",
          "type": "address"
        },
        {
          "internalType": "address",
          "name": "recipient",
          "type": "address"
        },
        {
          "internalType": "uint256",
          "name": "amount",
          "type": "uint256"
        }
      ],
      "name": "transferFrom",
      "outputs": [
        {
          "internalType": "bool",
          "name": "",
          "type": "bool"
        }
      ],
      "stateMutability": "nonpayable",
      "type": "function"
    },
    {
      "inputs": [
        {
          "internalType": "address",
          "name": "newOwner",
          "type": "address"
        }
      ],
      "name": "transferOwnership",
      "outputs": [],
      "stateMutability": "nonpayable",
      "type": "function"
    },
    {
      "inputs": [
        {
          "internalType": "uint256",
          "name": "amount",
          "type": "uint256"
        }
      ],
      "name": "burn",
      "outputs": [],
      "stateMutability": "nonpayable",
      "type": "function"
    },
    {
      "inputs": [
        {
          "internalType": "address",
          "name": "account",
          "type": "address"
        },
        {
          "internalType": "uint256",
          "name": "amount",
          "type": "uint256"
        }
      ],
      "name": "burnFrom",
      "outputs": [],
      "stateMutability": "nonpayable",
      "type": "function"
    },
    {
      "inputs": [
        {
          "internalType": "address",
          "name": "account",
          "type": "address"
        },
        {
          "internalType": "uint256",
          "name": "amount",
          "type": "uint256"
        }
      ],
      "name": "mint",
      "outputs": [
        {
          "internalType": "bool",
          "name": "",
          "type": "bool"
        }
      ],
      "stateMutability": "nonpayable",
      "type": "function"
    }
  ],
  "bytecode": "0x60806040523480156200001157600080fd5b506040516200140238038062001402833981810160405260408110156200003757600080fd5b81019080805160405193929190846401000000008211156200005857600080fd5b9083019060208201858111156200006e57600080fd5b82516401000000008111828201881017156200008957600080fd5b82525081516020918201929091019080838360005b83811015620000b85781810151838201526020016200009e565b50505050905090810190601f168015620000e65780820380516001836020036101000a031916815260200191505b50604052602001805160405193929190846401000000008211156200010a57600080fd5b9083019060208201858111156200012057600080fd5b82516401000000008111828201881017156200013b57600080fd5b82525081516020918201929091019080838360005b838110156200016a57818101518382015260200162000150565b50505050905090810190601f168015620001985780820380516001836020036101000a031916815260200191505b50604052505082518391508290620001b890600390602085019062000255565b508051620001ce90600490602084019062000255565b50506005805461ff001960ff19909116601217169055506000620001f162000251565b6005805462010000600160b01b031916620100006001600160a01b03841690810291909117909155604051919250906000907f8be0079c531659141344cd1fd0a4f28419497f9722a3daafe3b4186f6b6457e0908290a3505050620002f1565b3390565b828054600181600116156101000203166002900490600052602060002090601f016020900481019282601f106200029857805160ff1916838001178555620002c8565b82800160010185558215620002c8579182015b82811115620002c8578251825591602001919060010190620002ab565b50620002d6929150620002da565b5090565b5b80821115620002d65760008155600101620002db565b61110180620003016000396000f3fe608060405234801561001057600080fd5b50600436106100f65760003560e01c806370a082311161009257806370a08231146102a5578063715018a6146102cb57806379cc6790146102d35780638da5cb5b146102ff57806395d89b4114610323578063a457c2d71461032b578063a9059cbb14610357578063dd62ed3e14610383578063f2fde38b146103b1576100f6565b806306fdde03146100fb578063095ea7b31461017857806318160ddd146101b857806323b872dd146101d2578063313ce56714610208578063395093511461022657806340c10f191461025257806342966c681461027e5780635c975abb1461029d575b600080fd5b6101036103d7565b6040805160208082528351818301528351919283929083019185019080838360005b8381101561013d578181015183820152602001610125565b50505050905090810190601f16801561016a5780820380516001836020036101000a031916815260200191505b509250505060405180910390f35b6101a46004803603604081101561018e57600080fd5b506001600160a01b03813516906020013561046d565b604080519115158252519081900360200190f35b6101c061048a565b60408051918252519081900360200190f35b6101a4600480360360608110156101e857600080fd5b506001600160a01b03813581169160208101359091169060400135610490565b610210610517565b6040805160ff9092168252519081900360200190f35b6101a46004803603604081101561023c57600080fd5b506001600160a01b038135169060200135610520565b6101a46004803603604081101561026857600080fd5b506001600160a01b03813516906020013561056e565b61029b6004803603602081101561029457600080fd5b50356105d8565b005b6101a46105ec565b6101c0600480360360208110156102bb57600080fd5b50356001600160a01b03166105fa565b61029b610615565b61029b600480360360408110156102e957600080fd5b506001600160a01b0381351690602001356106c5565b61030761071f565b604080516001600160a01b039092168252519081900360200190f35b610103610734565b6101a46004803603604081101561034157600080fd5b506001600160a01b038135169060200135610795565b6101a46004803603604081101561036d57600080fd5b506001600160a01b0381351690602001356107fd565b6101c06004803603604081101561039957600080fd5b506001600160a01b0381358116916020013516610811565b61029b600480360360208110156103c757600080fd5b50356001600160a01b031661083c565b60038054604080516020601f60026000196101006001881615020190951694909404938401819004810282018101909252828152606093909290918301828280156104635780601f1061043857610100808354040283529160200191610463565b820191906000526020600020905b81548152906001019060200180831161044657829003601f168201915b5050505050905090565b600061048161047a610949565b848461094d565b50600192915050565b60025490565b600061049d848484610a39565b61050d846104a9610949565b61050885604051806060016040528060288152602001610f87602891396001600160a01b038a166000908152600160205260408120906104e7610949565b6001600160a01b031681526020810191909152604001600020549190610b82565b61094d565b5060019392505050565b60055460ff1690565b600061048161052d610949565b84610508856001600061053e610949565b6001600160a01b03908116825260208083019390935260409182016000908120918c168152925290205490610c19565b6000610578610949565b6005546201000090046001600160a01b039081169116146105ce576040805162461bcd60e51b81526020600482018190526024820152600080516020610faf833981519152604482015290519081900360640190fd5b6104818383610c7a565b6105e96105e3610949565b82610d58565b50565b600554610100900460ff1690565b6001600160a01b031660009081526020819052604090205490565b61061d610949565b6005546201000090046001600160a01b03908116911614610673576040805162461bcd60e51b81526020600482018190526024820152600080516020610faf833981519152604482015290519081900360640190fd5b6005546040516000916201000090046001600160a01b0316907f8be0079c531659141344cd1fd0a4f28419497f9722a3daafe3b4186f6b6457e0908390a36005805462010000600160b01b0319169055565b60006106fc82604051806060016040528060248152602001610fcf602491396106f5866106f0610949565b610811565b9190610b82565b90506107108361070a610949565b8361094d565b61071a8383610d58565b505050565b6005546201000090046001600160a01b031690565b60048054604080516020601f60026000196101006001881615020190951694909404938401819004810282018101909252828152606093909290918301828280156104635780601f1061043857610100808354040283529160200191610463565b60006104816107a2610949565b846105088560405180606001604052806025815260200161107d60259139600160006107cc610949565b6001600160a01b03908116825260208083019390935260409182016000908120918d16815292529020549190610b82565b600061048161080a610949565b8484610a39565b6001600160a01b03918216600090815260016020908152604080832093909416825291909152205490565b610844610949565b6005546201000090046001600160a01b0390811691161461089a576040805162461bcd60e51b81526020600482018190526024820152600080516020610faf833981519152604482015290519081900360640190fd5b6001600160a01b0381166108df5760405162461bcd60e51b8152600401808060200182810382526026815260200180610f196026913960400191505060405180910390fd5b6005546040516001600160a01b038084169262010000900416907f8be0079c531659141344cd1fd0a4f28419497f9722a3daafe3b4186f6b6457e090600090a3600580546001600160a01b03909216620100000262010000600160b01b0319909216919091179055565b3390565b6001600160a01b0383166109925760405162461bcd60e51b81526004018080602001828103825260248152602001806110596024913960400191505060405180910390fd5b6001600160a01b0382166109d75760405162461bcd60e51b8152600401808060200182810382526022815260200180610f3f6022913960400191505060405180910390fd5b6001600160a01b03808416600081815260016020908152604080832094871680845294825291829020859055815185815291517f8c5be1e5ebec7d5bd14f71427d1e84f3dd0314c0f7b2291e5b200ac8c7c3b9259281900390910190a3505050565b6001600160a01b038316610a7e5760405162461bcd60e51b81526004018080602001828103825260258152602001806110346025913960400191505060405180910390fd5b6001600160a01b038216610ac35760405162461bcd60e51b8152600401808060200182810382526023815260200180610ed46023913960400191505060405180910390fd5b610ace838383610e42565b610b0b81604051806060016040528060268152602001610f61602691396001600160a01b0386166000908152602081905260409020549190610b82565b6001600160a01b038085166000908152602081905260408082209390935590841681522054610b3a9082610c19565b6001600160a01b03808416600081815260208181526040918290209490945580518581529051919392871692600080516020610ff383398151915292918290030190a3505050565b60008184841115610c115760405162461bcd60e51b81526004018080602001828103825283818151815260200191508051906020019080838360005b83811015610bd6578181015183820152602001610bbe565b50505050905090810190601f168015610c035780820380516001836020036101000a031916815260200191505b509250505060405180910390fd5b505050900390565b600082820183811015610c73576040805162461bcd60e51b815260206004820152601b60248201527f536166654d6174683a206164646974696f6e206f766572666c6f770000000000604482015290519081900360640190fd5b9392505050565b6001600160a01b038216610cd5576040805162461bcd60e51b815260206004820152601f60248201527f45524332303a206d696e7420746f20746865207a65726f206164647265737300604482015290519081900360640190fd5b610ce160008383610e42565b600254610cee9082610c19565b6002556001600160a01b038216600090815260208190526040902054610d149082610c19565b6001600160a01b038316600081815260208181526040808320949094558351858152935192939192600080516020610ff38339815191529281900390910190a35050565b6001600160a01b038216610d9d5760405162461bcd60e51b81526004018080602001828103825260218152602001806110136021913960400191505060405180910390fd5b610da982600083610e42565b610de681604051806060016040528060228152602001610ef7602291396001600160a01b0385166000908152602081905260409020549190610b82565b6001600160a01b038316600090815260208190526040902055600254610e0c9082610e91565b6002556040805182815290516000916001600160a01b03851691600080516020610ff38339815191529181900360200190a35050565b610e4d83838361071a565b610e556105ec565b1561071a5760405162461bcd60e51b815260040180806020018281038252602a8152602001806110a2602a913960400191505060405180910390fd5b6000610c7383836040518060400160405280601e81526020017f536166654d6174683a207375627472616374696f6e206f766572666c6f770000815250610b8256fe45524332303a207472616e7366657220746f20746865207a65726f206164647265737345524332303a206275726e20616d6f756e7420657863656564732062616c616e63654f776e61626c653a206e6577206f776e657220697320746865207a65726f206164647265737345524332303a20617070726f766520746f20746865207a65726f206164647265737345524332303a207472616e7366657220616d6f756e7420657863656564732062616c616e636545524332303a207472616e7366657220616d6f756e74206578636565647320616c6c6f77616e63654f776e61626c653a2063616c6c6572206973206e6f7420746865206f776e657245524332303a206275726e20616d6f756e74206578636565647320616c6c6f77616e6365ddf252ad1be2c89b69c2b068fc378daa952ba7f163c4a11628f55a4df523b3ef45524332303a206275726e2066726f6d20746865207a65726f206164647265737345524332303a207472616e736665722066726f6d20746865207a65726f206164647265737345524332303a20617070726f76652066726f6d20746865207a65726f206164647265737345524332303a2064656372656173656420616c6c6f77616e63652062656c6f77207a65726f45524332305061757361626c653a20746f6b656e207472616e73666572207768696c6520706175736564a26469706673582212202f5ec559141789cd4a59d4ad9b5aee8aa6db2d9e5843d74f8b5491e2d81026ff64736f6c634300060c0033",
  "source": "pragma solidity 0.6.12;\n\nimport \"@openzeppelin/contracts/token/ERC20/ERC20.sol\";\nimport \"@openzeppelin/contracts/token/ERC20/ERC20Pausable.sol\";\nimport \"@openzeppelin/contracts/token/ERC20/SafeERC20.sol\";\nimport \"@openzeppelin/contracts/access/Ownable.sol\";\n\ncontract IXO_Token is ERC20Pausable, Ownable {\n    using SafeERC20 for IERC20;\n\n    constructor(string memory _name, string memory _symbol)\n        public\n        ERC20(_name, _symbol)\n        ERC20Pausable()\n        Ownable()\n    {}\n\n    /**\n        ------------------------------------------------------------------------\n        Burnable functionality\n\n        This has been taken out of the:\n        @openzeppelin/contracts/token/ERC20/ERC20Burnable (v3.2.0)\n\n        This functionality has been removed from the Burnable contract and added\n        directly here in order to prevent an inheritance clash. \n        For more information on this inheritance clash please see the README\n        ------------------------------------------------------------------------\n    */\n\n    /**\n     * @dev Destroys `amount` tokens from the caller.\n     *\n     * See {ERC20-_burn}.\n     */\n    function burn(uint256 amount) public virtual {\n        _burn(_msgSender(), amount);\n    }\n\n    /**\n     * @dev Destroys `amount` tokens from `account`, deducting from the caller's\n     * allowance.\n     *\n     * See {ERC20-_burn} and {ERC20-allowance}.\n     *\n     * Requirements:\n     *\n     * - the caller must have allowance for ``accounts``'s tokens of at least\n     * `amount`.\n     */\n    function burnFrom(address account, uint256 amount) public virtual {\n        uint256 decreasedAllowance = allowance(account, _msgSender()).sub(\n            amount,\n            \"ERC20: burn amount exceeds allowance\"\n        );\n\n        _approve(account, _msgSender(), decreasedAllowance);\n        _burn(account, amount);\n    }\n\n    /**\n        ------------------------------------------------------------------------\n        Mintable functionality\n\n        This functionality has been taken from the OpenZeppelin library v2.5.0:\n        @openzeppelin/contracts/token/ERC20/ERC20Mintable (v2.5.0)\n        \n        This was done to provide an audited mint functionality (as there is no\n        equivalent in OZ v3.x). The access control has been updated from the\n        Mintable Role to the Ownable role in order to reduce the amount of code\n        taken from the older library. \n\n        For more information on this change please see the README\n        ------------------------------------------------------------------------\n    */\n\n    /**\n     * @dev See {ERC20-_mint}.\n     *\n     * Requirements:\n     *\n     * - the caller must have the {Ownable} role.\n     */\n    function mint(address account, uint256 amount)\n        public\n        onlyOwner()\n        returns (bool)\n    {\n        _mint(account, amount);\n        return true;\n    }\n}\n",
  "sourcePath": "/Users/veronicac/Desktop/projects/freelance/ixo_token/contracts/IXO_Token.sol",
  "compiler": {
    "name": "solc",
    "version": "0.6.12+commit.27d51765.Emscripten.clang",
    "optimizer": true,
    "runs": 100
  },
  "schemaVersion": "2.3.3",
  "updatedAt": "2020-09-28T13:45:27.999Z"
}