{
  "contractName": "LimeFactory",
  "abi": [
    {
      "anonymous": false,
      "inputs": [
        {
          "indexed": false,
          "internalType": "string",
          "name": "name",
          "type": "string"
        }
      ],
      "name": "FreshLime",
      "type": "event"
    },
    {
      "inputs": [
        {
          "internalType": "uint256",
          "name": "",
          "type": "uint256"
        }
      ],
      "name": "limes",
      "outputs": [
        {
          "internalType": "string",
          "name": "name",
          "type": "string"
        },
        {
          "internalType": "uint8",
          "name": "carbohydrates",
          "type": "uint8"
        },
        {
          "internalType": "uint8",
          "name": "fat",
          "type": "uint8"
        },
        {
          "internalType": "uint8",
          "name": "protein",
          "type": "uint8"
        }
      ],
      "stateMutability": "view",
      "type": "function"
    },
    {
      "inputs": [
        {
          "internalType": "string",
          "name": "_name",
          "type": "string"
        },
        {
          "internalType": "uint8",
          "name": "_carbohydrates",
          "type": "uint8"
        },
        {
          "internalType": "uint8",
          "name": "_fat",
          "type": "uint8"
        },
        {
          "internalType": "uint8",
          "name": "_protein",
          "type": "uint8"
        }
      ],
      "name": "createLime",
      "outputs": [],
      "stateMutability": "nonpayable",
      "type": "function"
    }
  ],
  "bytecode": "0x608060405234801561001057600080fd5b506104ef806100206000396000f3fe608060405234801561001057600080fd5b50600436106100365760003560e01c806321310ecd1461003b578063e0b6fcfc146100ee575b600080fd5b6100586004803603602081101561005157600080fd5b50356101aa565b60405180806020018560ff1681526020018460ff1681526020018360ff168152602001828103825286818151815260200191508051906020019080838360005b838110156100b0578181015183820152602001610098565b50505050905090810190601f1680156100dd5780820380516001836020036101000a031916815260200191505b509550505050505060405180910390f35b6101a86004803603608081101561010457600080fd5b81019060208101813564010000000081111561011f57600080fd5b82018360208201111561013157600080fd5b8035906020019184600183028401116401000000008311171561015357600080fd5b91908080601f0160208091040260200160405190810160405280939291908181526020018383808284376000920191909152509295505060ff8335811694506020840135811693604001351691506102739050565b005b600081815481106101b757fe5b60009182526020918290206002918202018054604080516001831615610100026000190190921693909304601f81018590048502820185019093528281529093509183919083018282801561024d5780601f106102225761010080835404028352916020019161024d565b820191906000526020600020905b81548152906001019060200180831161023057829003601f168201915b5050506001909301549192505060ff808216916101008104821691620100009091041684565b60ff83166102c8576040805162461bcd60e51b815260206004820152601d60248201527f54686520636172626f68796472617465732063616e6e6f742062652030000000604482015290519081900360640190fd5b6040805160808101825285815260ff80861660208084019190915285821693830193909352831660608201526000805460018101825590805281518051929360029092027f290decd9548b62a8d60345a988386fc84ba6bc95484008f6362f93160ef3e563019261033c9284920190610426565b506020828101516001909201805460408086015160609096015160ff908116620100000262ff0000199782166101000261ff00199290971660ff199094169390931716949094179490941693909317909255805182815286518184015286517fe65ca226f7ab35846085554e9c72f162260bd2e4a6d6a752f0aacad4e0f18fe593889383929083019185019080838360005b838110156103e65781810151838201526020016103ce565b50505050905090810190601f1680156104135780820380516001836020036101000a031916815260200191505b509250505060405180910390a150505050565b828054600181600116156101000203166002900490600052602060002090601f016020900481019282601f1061046757805160ff1916838001178555610494565b82800160010185558215610494579182015b82811115610494578251825591602001919060010190610479565b506104a09291506104a4565b5090565b5b808211156104a057600081556001016104a556fea2646970667358221220b7fa28d56d0d83590037238fa2203a130395ef03c216fad32e086d0f6f739b3264736f6c634300060c0033",
  "source": "pragma solidity ^0.6.0;\n\ncontract LimeFactory {\n\n    event FreshLime(string name);\n\n    struct Lime {\n        string name;\n        uint8 carbohydrates;\n        uint8 fat;\n        uint8 protein;\n    }\n\n    Lime[] public limes;\n\n    function createLime(string memory _name, uint8 _carbohydrates, uint8 _fat, uint8 _protein) public {\n        require(_carbohydrates != 0, \"The carbohydrates cannot be 0\");\n        limes.push(Lime(_name, _carbohydrates, _fat, _protein));\n        emit FreshLime(_name);\n    }\n}",
  "sourcePath": "/Users/veronicac/Desktop/projects/freelance/ixo_token/contracts/LimeFactory.sol",
  "compiler": {
    "name": "solc",
    "version": "0.6.12+commit.27d51765.Emscripten.clang",
    "optimizer": true,
    "runs": 100
  },
  "schemaVersion": "2.3.3",
  "updatedAt": "2020-09-28T12:48:20.798Z"
}